{
    "contractName": "TodoList",
    "abi": [
        {
            "anonymous": false,
            "inputs": [
                {
                    "indexed": false,
                    "internalType": "uint256",
                    "name": "taskId",
                    "type": "uint256"
                },
                {
                    "indexed": false,
                    "internalType": "string",
                    "name": "description",
                    "type": "string"
                }
            ],
            "name": "TaskAdded",
            "type": "event"
        },
        {
            "anonymous": false,
            "inputs": [
                {
                    "indexed": false,
                    "internalType": "uint256",
                    "name": "taskId",
                    "type": "uint256"
                },
                {
                    "indexed": false,
                    "internalType": "bool",
                    "name": "isCompleted",
                    "type": "bool"
                }
            ],
            "name": "TaskToggled",
            "type": "event"
        },
        {
            "inputs": [
                {
                    "internalType": "string",
                    "name": "_description",
                    "type": "string"
                }
            ],
            "name": "addTask",
            "outputs": [],
            "stateMutability": "nonpayable",
            "type": "function"
        },
        {
            "inputs": [],
            "name": "getTaskCount",
            "outputs": [
                {
                    "internalType": "uint256",
                    "name": "",
                    "type": "uint256"
                }
            ],
            "stateMutability": "view",
            "type": "function"
        },
        {
            "inputs": [
                {
                    "internalType": "uint256",
                    "name": "",
                    "type": "uint256"
                }
            ],
            "name": "tasks",
            "outputs": [
                {
                    "internalType": "string",
                    "name": "description",
                    "type": "string"
                },
                {
                    "internalType": "bool",
                    "name": "isCompleted",
                    "type": "bool"
                }
            ],
            "stateMutability": "view",
            "type": "function"
        },
        {
            "inputs": [
                {
                    "internalType": "uint256",
                    "name": "_taskId",
                    "type": "uint256"
                }
            ],
            "name": "toggleCompleted",
            "outputs": [],
            "stateMutability": "nonpayable",
            "type": "function"
        }
    ],
    "bytecode": "60808060405234601557610594908161001a8239f35b5f80fdfe6080806040526004361015610012575f80fd5b5f3560e01c908163455f5024146103cb57508063672385621461014c5780638d977672146100685763c17a340e14610048575f80fd5b34610064575f3660031901126100645760205f54604051908152f35b5f80fd5b34610064576020366003190112610064576004355f548110156100645761008e906104b6565b506040515f825461009e81610502565b808452906001811690811561012957506001146100ee575b5060016100e2936100cb8460ff940385610494565b01541660405192839260408452604084019061053a565b90151560208301520390f35b5f848152602081209092505b81831061010f575050810160200160016100b6565b6001816020929493945483858801015201910191906100fa565b60ff191660208086019190915291151560051b84019091019150600190506100b6565b346100645760203660031901126100645760043567ffffffffffffffff8111610064573660238201121561006457806004013567ffffffffffffffff81116103a457604051916101a6601f8301601f191660200184610494565b818352366024838301011161006457815f926024602093018386013783010152604051906040820182811067ffffffffffffffff8211176103a45760405280825260208201915f83525f54680100000000000000008110156103a45780600161021192015f556104b6565b9190916103b8575192835167ffffffffffffffff81116103a4576102358354610502565b601f811161035f575b506020601f82116001146102f75790806001939261028796975f926102ec575b50505f19600383901b1c191690831b1783555b51151591019060ff801983541691151516179055565b5f545f198101919082116102d8577f2ee7ce8bac091b03a0c391c07ee88a246bdd72bdc6b1ef1ce4d99220595d32c5916102d3604051928392835260406020840152604083019061053a565b0390a1005b634e487b7160e01b5f52601160045260245ffd5b01519050878061025e565b601f19821690845f52805f20915f5b818110610347575091839161028797986001969587951061032f575b505050811b018355610271565b01515f1960f88460031b161c19169055878080610322565b9192602060018192868c015181550194019201610306565b835f5260205f20601f830160051c8101916020841061039a575b601f0160051c01905b81811061038f575061023e565b5f8155600101610382565b9091508190610379565b634e487b7160e01b5f52604160045260245ffd5b634e487b7160e01b5f525f60045260245ffd5b3461006457602036600319011261006457600435905f54821015610460577fe668c7a227d9261aa1f964bf5a852ab642446a7af6c29405caf8d0e9ce2c11f060408361044060ff600161041d846104b6565b5001541615600161042d846104b6565b50019060ff801983541691151516179055565b60ff600161044d836104b6565b50015416825191825215156020820152a1005b62461bcd60e51b815260206004820152600f60248201526e125b9d985b1a59081d185cdac81251608a1b6044820152606490fd5b90601f8019910116810190811067ffffffffffffffff8211176103a457604052565b5f548110156104ee575f80805260019190911b7f290decd9548b62a8d60345a988386fc84ba6bc95484008f6362f93160ef3e5630191565b634e487b7160e01b5f52603260045260245ffd5b90600182811c92168015610530575b602083101461051c57565b634e487b7160e01b5f52602260045260245ffd5b91607f1691610511565b805180835260209291819084018484015e5f828201840152601f01601f191601019056fea2646970667358221220494396ce134ed5c50dd34fa114f75f922d2f2a93e2173ddcc97f6cee7981aea364736f6c634300081e0033",
    "sourcePath": "c:/Users/Ruslan/Documents/GitHub/DTodoList/contracts/TodoList.sol",
    "compiler": {
        "name": "solc",
        "version": "0.8.30+commit.73712a01"
    },
    "functionHashes": {
        "addTask(string)": "67238562",
        "getTaskCount()": "c17a340e",
        "tasks(uint256)": "8d977672",
        "toggleCompleted(uint256)": "455f5024"
    },
    "gasEstimates": {
        "creation": {
            "codeDepositCost": "285600",
            "executionCost": "331",
            "totalCost": "285931"
        },
        "external": {
            "addTask(string)": "infinite",
            "getTaskCount()": "2318",
            "tasks(uint256)": "infinite",
            "toggleCompleted(uint256)": "infinite"
        }
    }
}