{
  "_format": "hh-sol-artifact-1",
  "contractName": "TodoList",
  "sourceName": "contracts/TodoList.sol",
  "abi": [
    {
      "anonymous": false,
      "inputs": [
        {
          "indexed": false,
          "internalType": "uint256",
          "name": "taskId",
          "type": "uint256"
        },
        {
          "indexed": false,
          "internalType": "string",
          "name": "description",
          "type": "string"
        }
      ],
      "name": "TaskAdded",
      "type": "event"
    },
    {
      "anonymous": false,
      "inputs": [
        {
          "indexed": false,
          "internalType": "uint256",
          "name": "taskId",
          "type": "uint256"
        },
        {
          "indexed": false,
          "internalType": "bool",
          "name": "isCompleted",
          "type": "bool"
        }
      ],
      "name": "TaskToggled",
      "type": "event"
    },
    {
      "inputs": [
        {
          "internalType": "string",
          "name": "_description",
          "type": "string"
        }
      ],
      "name": "addTask",
      "outputs": [],
      "stateMutability": "nonpayable",
      "type": "function"
    },
    {
      "inputs": [],
      "name": "getTaskCount",
      "outputs": [
        {
          "internalType": "uint256",
          "name": "",
          "type": "uint256"
        }
      ],
      "stateMutability": "view",
      "type": "function"
    },
    {
      "inputs": [
        {
          "internalType": "uint256",
          "name": "",
          "type": "uint256"
        }
      ],
      "name": "tasks",
      "outputs": [
        {
          "internalType": "string",
          "name": "description",
          "type": "string"
        },
        {
          "internalType": "bool",
          "name": "isCompleted",
          "type": "bool"
        }
      ],
      "stateMutability": "view",
      "type": "function"
    },
    {
      "inputs": [
        {
          "internalType": "uint256",
          "name": "_taskId",
          "type": "uint256"
        }
      ],
      "name": "toggleCompleted",
      "outputs": [],
      "stateMutability": "nonpayable",
      "type": "function"
    }
  ],
  "bytecode": "0x6080604052348015600f57600080fd5b50610aff8061001f6000396000f3fe608060405234801561001057600080fd5b506004361061004c5760003560e01c8063455f502414610051578063672385621461006d5780638d97767214610089578063c17a340e146100ba575b600080fd5b61006b600480360381019061006691906103e4565b6100d8565b005b61008760048036038101906100829190610557565b6101fd565b005b6100a3600480360381019061009e91906103e4565b6102c5565b6040516100b192919061063a565b60405180910390f35b6100c261038e565b6040516100cf9190610679565b60405180910390f35b600080549050811061011f576040517f08c379a0000000000000000000000000000000000000000000000000000000008152600401610116906106e0565b60405180910390fd5b6000818154811061013357610132610700565b5b906000526020600020906002020160010160009054906101000a900460ff16156000828154811061016757610166610700565b5b906000526020600020906002020160010160006101000a81548160ff0219169083151502179055507fe668c7a227d9261aa1f964bf5a852ab642446a7af6c29405caf8d0e9ce2c11f081600083815481106101c5576101c4610700565b5b906000526020600020906002020160010160009054906101000a900460ff166040516101f292919061072f565b60405180910390a150565b6000604051806040016040528083815260200160001515815250908060018154018082558091505060019003906000526020600020906002020160009091909190915060008201518160000190816102559190610964565b5060208201518160010160006101000a81548160ff02191690831515021790555050507f2ee7ce8bac091b03a0c391c07ee88a246bdd72bdc6b1ef1ce4d99220595d32c560016000805490506102ab9190610a65565b826040516102ba929190610a99565b60405180910390a150565b600081815481106102d557600080fd5b90600052602060002090600202016000915090508060000180546102f890610787565b80601f016020809104026020016040519081016040528092919081815260200182805461032490610787565b80156103715780601f1061034657610100808354040283529160200191610371565b820191906000526020600020905b81548152906001019060200180831161035457829003601f168201915b5050505050908060010160009054906101000a900460ff16905082565b60008080549050905090565b6000604051905090565b600080fd5b600080fd5b6000819050919050565b6103c1816103ae565b81146103cc57600080fd5b50565b6000813590506103de816103b8565b92915050565b6000602082840312156103fa576103f96103a4565b5b6000610408848285016103cf565b91505092915050565b600080fd5b600080fd5b6000601f19601f8301169050919050565b7f4e487b7100000000000000000000000000000000000000000000000000000000600052604160045260246000fd5b6104648261041b565b810181811067ffffffffffffffff821117156104835761048261042c565b5b80604052505050565b600061049661039a565b90506104a2828261045b565b919050565b600067ffffffffffffffff8211156104c2576104c161042c565b5b6104cb8261041b565b9050602081019050919050565b82818337600083830152505050565b60006104fa6104f5846104a7565b61048c565b90508281526020810184848401111561051657610515610416565b5b6105218482856104d8565b509392505050565b600082601f83011261053e5761053d610411565b5b813561054e8482602086016104e7565b91505092915050565b60006020828403121561056d5761056c6103a4565b5b600082013567ffffffffffffffff81111561058b5761058a6103a9565b5b61059784828501610529565b91505092915050565b600081519050919050565b600082825260208201905092915050565b60005b838110156105da5780820151818401526020810190506105bf565b60008484015250505050565b60006105f1826105a0565b6105fb81856105ab565b935061060b8185602086016105bc565b6106148161041b565b840191505092915050565b60008115159050919050565b6106348161061f565b82525050565b6000604082019050818103600083015261065481856105e6565b9050610663602083018461062b565b9392505050565b610673816103ae565b82525050565b600060208201905061068e600083018461066a565b92915050565b7f496e76616c6964207461736b2049440000000000000000000000000000000000600082015250565b60006106ca600f836105ab565b91506106d582610694565b602082019050919050565b600060208201905081810360008301526106f9816106bd565b9050919050565b7f4e487b7100000000000000000000000000000000000000000000000000000000600052603260045260246000fd5b6000604082019050610744600083018561066a565b610751602083018461062b565b9392505050565b7f4e487b7100000000000000000000000000000000000000000000000000000000600052602260045260246000fd5b6000600282049050600182168061079f57607f821691505b6020821081036107b2576107b1610758565b5b50919050565b60008190508160005260206000209050919050565b60006020601f8301049050919050565b600082821b905092915050565b60006008830261081a7fffffffffffffffffffffffffffffffffffffffffffffffffffffffffffffffff826107dd565b61082486836107dd565b95508019841693508086168417925050509392505050565b6000819050919050565b600061086161085c610857846103ae565b61083c565b6103ae565b9050919050565b6000819050919050565b61087b83610846565b61088f61088782610868565b8484546107ea565b825550505050565b600090565b6108a4610897565b6108af818484610872565b505050565b5b818110156108d3576108c860008261089c565b6001810190506108b5565b5050565b601f821115610918576108e9816107b8565b6108f2846107cd565b81016020851015610901578190505b61091561090d856107cd565b8301826108b4565b50505b505050565b600082821c905092915050565b600061093b6000198460080261091d565b1980831691505092915050565b6000610954838361092a565b9150826002028217905092915050565b61096d826105a0565b67ffffffffffffffff8111156109865761098561042c565b5b6109908254610787565b61099b8282856108d7565b600060209050601f8311600181146109ce57600084156109bc578287015190505b6109c68582610948565b865550610a2e565b601f1984166109dc866107b8565b60005b82811015610a04578489015182556001820191506020850194506020810190506109df565b86831015610a215784890151610a1d601f89168261092a565b8355505b6001600288020188555050505b505050505050565b7f4e487b7100000000000000000000000000000000000000000000000000000000600052601160045260246000fd5b6000610a70826103ae565b9150610a7b836103ae565b9250828203905081811115610a9357610a92610a36565b5b92915050565b6000604082019050610aae600083018561066a565b8181036020830152610ac081846105e6565b9050939250505056fea2646970667358221220da264dd76555770fd91916185c71faa26e35ae1a0e337b7de8a5ecb12a340d7264736f6c634300081c0033",
  "linkReferences": {},
  "deployedLinkReferences": {}
}